{
  "contractName": "EthereumDIDRegistry",
  "abi": [
    {
      "anonymous": false,
      "inputs": [
        {
          "indexed": true,
          "internalType": "address",
          "name": "identity",
          "type": "address"
        },
        {
          "indexed": false,
          "internalType": "bytes32",
          "name": "name",
          "type": "bytes32"
        },
        {
          "indexed": false,
          "internalType": "bytes",
          "name": "value",
          "type": "bytes"
        },
        {
          "indexed": false,
          "internalType": "uint256",
          "name": "validTo",
          "type": "uint256"
        },
        {
          "indexed": false,
          "internalType": "uint256",
          "name": "previousChange",
          "type": "uint256"
        }
      ],
      "name": "DIDAttributeChanged",
      "type": "event"
    },
    {
      "anonymous": false,
      "inputs": [
        {
          "indexed": true,
          "internalType": "address",
          "name": "identity",
          "type": "address"
        },
        {
          "indexed": false,
          "internalType": "bytes32",
          "name": "delegateType",
          "type": "bytes32"
        },
        {
          "indexed": false,
          "internalType": "address",
          "name": "delegate",
          "type": "address"
        },
        {
          "indexed": false,
          "internalType": "uint256",
          "name": "validTo",
          "type": "uint256"
        },
        {
          "indexed": false,
          "internalType": "uint256",
          "name": "previousChange",
          "type": "uint256"
        }
      ],
      "name": "DIDDelegateChanged",
      "type": "event"
    },
    {
      "anonymous": false,
      "inputs": [
        {
          "indexed": true,
          "internalType": "address",
          "name": "identity",
          "type": "address"
        },
        {
          "indexed": false,
          "internalType": "address",
          "name": "owner",
          "type": "address"
        },
        {
          "indexed": false,
          "internalType": "uint256",
          "name": "previousChange",
          "type": "uint256"
        }
      ],
      "name": "DIDOwnerChanged",
      "type": "event"
    },
    {
      "inputs": [
        {
          "internalType": "address",
          "name": "",
          "type": "address"
        }
      ],
      "name": "changed",
      "outputs": [
        {
          "internalType": "uint256",
          "name": "",
          "type": "uint256"
        }
      ],
      "stateMutability": "view",
      "type": "function"
    },
    {
      "inputs": [
        {
          "internalType": "address",
          "name": "",
          "type": "address"
        },
        {
          "internalType": "bytes32",
          "name": "",
          "type": "bytes32"
        },
        {
          "internalType": "address",
          "name": "",
          "type": "address"
        }
      ],
      "name": "delegates",
      "outputs": [
        {
          "internalType": "uint256",
          "name": "",
          "type": "uint256"
        }
      ],
      "stateMutability": "view",
      "type": "function"
    },
    {
      "inputs": [
        {
          "internalType": "address",
          "name": "",
          "type": "address"
        }
      ],
      "name": "nonce",
      "outputs": [
        {
          "internalType": "uint256",
          "name": "",
          "type": "uint256"
        }
      ],
      "stateMutability": "view",
      "type": "function"
    },
    {
      "inputs": [
        {
          "internalType": "address",
          "name": "",
          "type": "address"
        }
      ],
      "name": "owners",
      "outputs": [
        {
          "internalType": "address",
          "name": "",
          "type": "address"
        }
      ],
      "stateMutability": "view",
      "type": "function"
    },
    {
      "inputs": [
        {
          "internalType": "address",
          "name": "identity",
          "type": "address"
        }
      ],
      "name": "identityOwner",
      "outputs": [
        {
          "internalType": "address",
          "name": "",
          "type": "address"
        }
      ],
      "stateMutability": "view",
      "type": "function"
    },
    {
      "inputs": [
        {
          "internalType": "address",
          "name": "identity",
          "type": "address"
        },
        {
          "internalType": "bytes32",
          "name": "delegateType",
          "type": "bytes32"
        },
        {
          "internalType": "address",
          "name": "delegate",
          "type": "address"
        }
      ],
      "name": "validDelegate",
      "outputs": [
        {
          "internalType": "bool",
          "name": "",
          "type": "bool"
        }
      ],
      "stateMutability": "view",
      "type": "function"
    },
    {
      "inputs": [
        {
          "internalType": "address",
          "name": "identity",
          "type": "address"
        },
        {
          "internalType": "address",
          "name": "newOwner",
          "type": "address"
        }
      ],
      "name": "changeOwner",
      "outputs": [],
      "stateMutability": "nonpayable",
      "type": "function"
    },
    {
      "inputs": [
        {
          "internalType": "address",
          "name": "identity",
          "type": "address"
        },
        {
          "internalType": "uint8",
          "name": "sigV",
          "type": "uint8"
        },
        {
          "internalType": "bytes32",
          "name": "sigR",
          "type": "bytes32"
        },
        {
          "internalType": "bytes32",
          "name": "sigS",
          "type": "bytes32"
        },
        {
          "internalType": "address",
          "name": "newOwner",
          "type": "address"
        }
      ],
      "name": "changeOwnerSigned",
      "outputs": [],
      "stateMutability": "nonpayable",
      "type": "function"
    },
    {
      "inputs": [
        {
          "internalType": "address",
          "name": "identity",
          "type": "address"
        },
        {
          "internalType": "bytes32",
          "name": "delegateType",
          "type": "bytes32"
        },
        {
          "internalType": "address",
          "name": "delegate",
          "type": "address"
        },
        {
          "internalType": "uint256",
          "name": "validity",
          "type": "uint256"
        }
      ],
      "name": "addDelegate",
      "outputs": [],
      "stateMutability": "nonpayable",
      "type": "function"
    },
    {
      "inputs": [
        {
          "internalType": "address",
          "name": "identity",
          "type": "address"
        },
        {
          "internalType": "uint8",
          "name": "sigV",
          "type": "uint8"
        },
        {
          "internalType": "bytes32",
          "name": "sigR",
          "type": "bytes32"
        },
        {
          "internalType": "bytes32",
          "name": "sigS",
          "type": "bytes32"
        },
        {
          "internalType": "bytes32",
          "name": "delegateType",
          "type": "bytes32"
        },
        {
          "internalType": "address",
          "name": "delegate",
          "type": "address"
        },
        {
          "internalType": "uint256",
          "name": "validity",
          "type": "uint256"
        }
      ],
      "name": "addDelegateSigned",
      "outputs": [],
      "stateMutability": "nonpayable",
      "type": "function"
    },
    {
      "inputs": [
        {
          "internalType": "address",
          "name": "identity",
          "type": "address"
        },
        {
          "internalType": "bytes32",
          "name": "delegateType",
          "type": "bytes32"
        },
        {
          "internalType": "address",
          "name": "delegate",
          "type": "address"
        }
      ],
      "name": "revokeDelegate",
      "outputs": [],
      "stateMutability": "nonpayable",
      "type": "function"
    },
    {
      "inputs": [
        {
          "internalType": "address",
          "name": "identity",
          "type": "address"
        },
        {
          "internalType": "uint8",
          "name": "sigV",
          "type": "uint8"
        },
        {
          "internalType": "bytes32",
          "name": "sigR",
          "type": "bytes32"
        },
        {
          "internalType": "bytes32",
          "name": "sigS",
          "type": "bytes32"
        },
        {
          "internalType": "bytes32",
          "name": "delegateType",
          "type": "bytes32"
        },
        {
          "internalType": "address",
          "name": "delegate",
          "type": "address"
        }
      ],
      "name": "revokeDelegateSigned",
      "outputs": [],
      "stateMutability": "nonpayable",
      "type": "function"
    },
    {
      "inputs": [
        {
          "internalType": "address",
          "name": "identity",
          "type": "address"
        },
        {
          "internalType": "bytes32",
          "name": "name",
          "type": "bytes32"
        },
        {
          "internalType": "bytes",
          "name": "value",
          "type": "bytes"
        },
        {
          "internalType": "uint256",
          "name": "validity",
          "type": "uint256"
        }
      ],
      "name": "setAttribute",
      "outputs": [],
      "stateMutability": "nonpayable",
      "type": "function"
    },
    {
      "inputs": [
        {
          "internalType": "address",
          "name": "identity",
          "type": "address"
        },
        {
          "internalType": "uint8",
          "name": "sigV",
          "type": "uint8"
        },
        {
          "internalType": "bytes32",
          "name": "sigR",
          "type": "bytes32"
        },
        {
          "internalType": "bytes32",
          "name": "sigS",
          "type": "bytes32"
        },
        {
          "internalType": "bytes32",
          "name": "name",
          "type": "bytes32"
        },
        {
          "internalType": "bytes",
          "name": "value",
          "type": "bytes"
        },
        {
          "internalType": "uint256",
          "name": "validity",
          "type": "uint256"
        }
      ],
      "name": "setAttributeSigned",
      "outputs": [],
      "stateMutability": "nonpayable",
      "type": "function"
    },
    {
      "inputs": [
        {
          "internalType": "address",
          "name": "identity",
          "type": "address"
        },
        {
          "internalType": "bytes32",
          "name": "name",
          "type": "bytes32"
        },
        {
          "internalType": "bytes",
          "name": "value",
          "type": "bytes"
        }
      ],
      "name": "revokeAttribute",
      "outputs": [],
      "stateMutability": "nonpayable",
      "type": "function"
    },
    {
      "inputs": [
        {
          "internalType": "address",
          "name": "identity",
          "type": "address"
        },
        {
          "internalType": "uint8",
          "name": "sigV",
          "type": "uint8"
        },
        {
          "internalType": "bytes32",
          "name": "sigR",
          "type": "bytes32"
        },
        {
          "internalType": "bytes32",
          "name": "sigS",
          "type": "bytes32"
        },
        {
          "internalType": "bytes32",
          "name": "name",
          "type": "bytes32"
        },
        {
          "internalType": "bytes",
          "name": "value",
          "type": "bytes"
        }
      ],
      "name": "revokeAttributeSigned",
      "outputs": [],
      "stateMutability": "nonpayable",
      "type": "function"
    }
  ],
  "bytecode": "0x608060405234801561001057600080fd5b50611ef7806100206000396000f3fe608060405234801561001057600080fd5b50600436106100ff5760003560e01c806380b29f7c11610097578063a7068d6611610066578063a7068d661461083d578063e476af5c146108b5578063f00d4b5d146109bb578063f96d0f9f14610a1f576100ff565b806380b29f7c146106395780638733d4e8146106a757806393072684146107155780639c2c1b2b146107a4576100ff565b8063240cf1fa116100d3578063240cf1fa146103e9578063622b2a3c1461046e57806370ae92d2146104f25780637ad4b0a41461054a576100ff565b8062c023da14610104578063022914a7146101e95780630d44625b14610257578063123b5e98146102d9575b600080fd5b6101e76004803603606081101561011a57600080fd5b81019080803573ffffffffffffffffffffffffffffffffffffffff169060200190929190803590602001909291908035906020019064010000000081111561016157600080fd5b82018360208201111561017357600080fd5b8035906020019184600183028401116401000000008311171561019557600080fd5b91908080601f016020809104026020016040519081016040528093929190818152602001838380828437600081840152601f19601f820116905080830192505050505050509192919290505050610a77565b005b61022b600480360360208110156101ff57600080fd5b81019080803573ffffffffffffffffffffffffffffffffffffffff169060200190929190505050610a88565b604051808273ffffffffffffffffffffffffffffffffffffffff16815260200191505060405180910390f35b6102c36004803603606081101561026d57600080fd5b81019080803573ffffffffffffffffffffffffffffffffffffffff16906020019092919080359060200190929190803573ffffffffffffffffffffffffffffffffffffffff169060200190929190505050610abb565b6040518082815260200191505060405180910390f35b6103e7600480360360e08110156102ef57600080fd5b81019080803573ffffffffffffffffffffffffffffffffffffffff169060200190929190803560ff1690602001909291908035906020019092919080359060200190929190803590602001909291908035906020019064010000000081111561035757600080fd5b82018360208201111561036957600080fd5b8035906020019184600183028401116401000000008311171561038b57600080fd5b91908080601f016020809104026020016040519081016040528093929190818152602001838380828437600081840152601f19601f82011690508083019250505050505050919291929080359060200190929190505050610aed565b005b61046c600480360360a08110156103ff57600080fd5b81019080803573ffffffffffffffffffffffffffffffffffffffff169060200190929190803560ff1690602001909291908035906020019092919080359060200190929190803573ffffffffffffffffffffffffffffffffffffffff169060200190929190505050610cab565b005b6104da6004803603606081101561048457600080fd5b81019080803573ffffffffffffffffffffffffffffffffffffffff16906020019092919080359060200190929190803573ffffffffffffffffffffffffffffffffffffffff169060200190929190505050610e23565b60405180821515815260200191505060405180910390f35b6105346004803603602081101561050857600080fd5b81019080803573ffffffffffffffffffffffffffffffffffffffff169060200190929190505050610ee9565b6040518082815260200191505060405180910390f35b6106376004803603608081101561056057600080fd5b81019080803573ffffffffffffffffffffffffffffffffffffffff16906020019092919080359060200190929190803590602001906401000000008111156105a757600080fd5b8201836020820111156105b957600080fd5b803590602001918460018302840111640100000000831117156105db57600080fd5b91908080601f016020809104026020016040519081016040528093929190818152602001838380828437600081840152601f19601f82011690508083019250505050505050919291929080359060200190929190505050610f01565b005b6106a56004803603606081101561064f57600080fd5b81019080803573ffffffffffffffffffffffffffffffffffffffff16906020019092919080359060200190929190803573ffffffffffffffffffffffffffffffffffffffff169060200190929190505050610f14565b005b6106e9600480360360208110156106bd57600080fd5b81019080803573ffffffffffffffffffffffffffffffffffffffff169060200190929190505050610f25565b604051808273ffffffffffffffffffffffffffffffffffffffff16815260200191505060405180910390f35b6107a2600480360360c081101561072b57600080fd5b81019080803573ffffffffffffffffffffffffffffffffffffffff169060200190929190803560ff169060200190929190803590602001909291908035906020019092919080359060200190929190803573ffffffffffffffffffffffffffffffffffffffff169060200190929190505050610fd0565b005b61083b600480360360e08110156107ba57600080fd5b81019080803573ffffffffffffffffffffffffffffffffffffffff169060200190929190803560ff169060200190929190803590602001909291908035906020019092919080359060200190929190803573ffffffffffffffffffffffffffffffffffffffff16906020019092919080359060200190929190505050611152565b005b6108b36004803603608081101561085357600080fd5b81019080803573ffffffffffffffffffffffffffffffffffffffff16906020019092919080359060200190929190803573ffffffffffffffffffffffffffffffffffffffff169060200190929190803590602001909291905050506112de565b005b6109b9600480360360c08110156108cb57600080fd5b81019080803573ffffffffffffffffffffffffffffffffffffffff169060200190929190803560ff1690602001909291908035906020019092919080359060200190929190803590602001909291908035906020019064010000000081111561093357600080fd5b82018360208201111561094557600080fd5b8035906020019184600183028401116401000000008311171561096757600080fd5b91908080601f016020809104026020016040519081016040528093929190818152602001838380828437600081840152601f19601f8201169050808301925050505050505091929192905050506112f1565b005b610a1d600480360360408110156109d157600080fd5b81019080803573ffffffffffffffffffffffffffffffffffffffff169060200190929190803573ffffffffffffffffffffffffffffffffffffffff1690602001909291905050506114a5565b005b610a6160048036036020811015610a3557600080fd5b81019080803573ffffffffffffffffffffffffffffffffffffffff1690602001909291905050506114b4565b6040518082815260200191505060405180910390f35b610a83833384846114cc565b505050565b60006020528060005260406000206000915054906101000a900473ffffffffffffffffffffffffffffffffffffffff1681565b600160205282600052604060002060205281600052604060002060205280600052604060002060009250925050505481565b6000601960f81b600060f81b3060036000610b078d610f25565b73ffffffffffffffffffffffffffffffffffffffff1673ffffffffffffffffffffffffffffffffffffffff168152602001908152602001600020548b88888860405160200180897effffffffffffffffffffffffffffffffffffffffffffffffffffffffffffff19168152600101887effffffffffffffffffffffffffffffffffffffffffffffffffffffffffffff191681526001018773ffffffffffffffffffffffffffffffffffffffff1660601b81526014018681526020018573ffffffffffffffffffffffffffffffffffffffff1660601b8152601401807f7365744174747269627574650000000000000000000000000000000000000000815250600c0184815260200183805190602001908083835b60208310610c3e5780518252602082019150602081019050602083039250610c1b565b6001836020036101000a03801982511681845116808217855250505050505090500182815260200198505050505050505050604051602081830303815290604052805190602001209050610ca188610c998a8a8a8a87611665565b86868661176a565b5050505050505050565b6000601960f81b600060f81b3060036000610cc58b610f25565b73ffffffffffffffffffffffffffffffffffffffff1673ffffffffffffffffffffffffffffffffffffffff16815260200190815260200160002054898660405160200180877effffffffffffffffffffffffffffffffffffffffffffffffffffffffffffff19168152600101867effffffffffffffffffffffffffffffffffffffffffffffffffffffffffffff191681526001018573ffffffffffffffffffffffffffffffffffffffff1660601b81526014018481526020018373ffffffffffffffffffffffffffffffffffffffff1660601b8152601401807f6368616e67654f776e6572000000000000000000000000000000000000000000815250600b018273ffffffffffffffffffffffffffffffffffffffff1660601b81526014019650505050505050604051602081830303815290604052805190602001209050610e1b86610e158888888887611665565b84611905565b505050505050565b600080600160008673ffffffffffffffffffffffffffffffffffffffff1673ffffffffffffffffffffffffffffffffffffffff1681526020019081526020016000206000856040516020018082815260200191505060405160208183030381529060405280519060200120815260200190815260200160002060008473ffffffffffffffffffffffffffffffffffffffff1673ffffffffffffffffffffffffffffffffffffffff1681526020019081526020016000205490504281119150509392505050565b60036020528060005260406000206000915090505481565b610f0e843385858561176a565b50505050565b610f2083338484611aba565b505050565b6000806000808473ffffffffffffffffffffffffffffffffffffffff1673ffffffffffffffffffffffffffffffffffffffff16815260200190815260200160002060009054906101000a900473ffffffffffffffffffffffffffffffffffffffff169050600073ffffffffffffffffffffffffffffffffffffffff168173ffffffffffffffffffffffffffffffffffffffff1614610fc65780915050610fcb565b829150505b919050565b6000601960f81b600060f81b3060036000610fea8c610f25565b73ffffffffffffffffffffffffffffffffffffffff1673ffffffffffffffffffffffffffffffffffffffff168152602001908152602001600020548a878760405160200180887effffffffffffffffffffffffffffffffffffffffffffffffffffffffffffff19168152600101877effffffffffffffffffffffffffffffffffffffffffffffffffffffffffffff191681526001018673ffffffffffffffffffffffffffffffffffffffff1660601b81526014018581526020018473ffffffffffffffffffffffffffffffffffffffff1660601b8152601401807f7265766f6b6544656c6567617465000000000000000000000000000000000000815250600e018381526020018273ffffffffffffffffffffffffffffffffffffffff1660601b8152601401975050505050505050604051602081830303815290604052805190602001209050611149876111428989898987611665565b8585611aba565b50505050505050565b6000601960f81b600060f81b306003600061116c8d610f25565b73ffffffffffffffffffffffffffffffffffffffff1673ffffffffffffffffffffffffffffffffffffffff168152602001908152602001600020548b88888860405160200180897effffffffffffffffffffffffffffffffffffffffffffffffffffffffffffff19168152600101887effffffffffffffffffffffffffffffffffffffffffffffffffffffffffffff191681526001018773ffffffffffffffffffffffffffffffffffffffff1660601b81526014018681526020018573ffffffffffffffffffffffffffffffffffffffff1660601b8152601401807f61646444656c6567617465000000000000000000000000000000000000000000815250600b018481526020018373ffffffffffffffffffffffffffffffffffffffff1660601b8152601401828152602001985050505050505050506040516020818303038152906040528051906020012090506112d4886112cc8a8a8a8a87611665565b868686611cbb565b5050505050505050565b6112eb8433858585611cbb565b50505050565b6000601960f81b600060f81b306003600061130b8c610f25565b73ffffffffffffffffffffffffffffffffffffffff1673ffffffffffffffffffffffffffffffffffffffff168152602001908152602001600020548a878760405160200180887effffffffffffffffffffffffffffffffffffffffffffffffffffffffffffff19168152600101877effffffffffffffffffffffffffffffffffffffffffffffffffffffffffffff191681526001018673ffffffffffffffffffffffffffffffffffffffff1660601b81526014018581526020018473ffffffffffffffffffffffffffffffffffffffff1660601b8152601401807f7265766f6b654174747269627574650000000000000000000000000000000000815250600f0183815260200182805190602001908083835b60208310611441578051825260208201915060208101905060208303925061141e565b6001836020036101000a03801982511681845116808217855250505050505090500197505050505050505060405160208183030381529060405280519060200120905061149c876114958989898987611665565b85856114cc565b50505050505050565b6114b0823383611905565b5050565b60026020528060005260406000206000915090505481565b83836114d782610f25565b73ffffffffffffffffffffffffffffffffffffffff168173ffffffffffffffffffffffffffffffffffffffff161461150e57600080fd5b8573ffffffffffffffffffffffffffffffffffffffff167f18ab6b2ae3d64306c00ce663125f2bd680e441a098de1635bd7ad8b0d44965e485856000600260008c73ffffffffffffffffffffffffffffffffffffffff1673ffffffffffffffffffffffffffffffffffffffff168152602001908152602001600020546040518085815260200180602001848152602001838152602001828103825285818151815260200191508051906020019080838360005b838110156115dc5780820151818401526020810190506115c1565b50505050905090810190601f1680156116095780820380516001836020036101000a031916815260200191505b509550505050505060405180910390a243600260008873ffffffffffffffffffffffffffffffffffffffff1673ffffffffffffffffffffffffffffffffffffffff16815260200190815260200160002081905550505050505050565b60008060018387878760405160008152602001604052604051808581526020018460ff1681526020018381526020018281526020019450505050506020604051602081039080840390855afa1580156116c2573d6000803e3d6000fd5b5050506020604051035190506116d787610f25565b73ffffffffffffffffffffffffffffffffffffffff168173ffffffffffffffffffffffffffffffffffffffff161461170e57600080fd5b600360008273ffffffffffffffffffffffffffffffffffffffff1673ffffffffffffffffffffffffffffffffffffffff168152602001908152602001600020600081548092919060010191905055508091505095945050505050565b848461177582610f25565b73ffffffffffffffffffffffffffffffffffffffff168173ffffffffffffffffffffffffffffffffffffffff16146117ac57600080fd5b8673ffffffffffffffffffffffffffffffffffffffff167f18ab6b2ae3d64306c00ce663125f2bd680e441a098de1635bd7ad8b0d44965e48686864201600260008d73ffffffffffffffffffffffffffffffffffffffff1673ffffffffffffffffffffffffffffffffffffffff168152602001908152602001600020546040518085815260200180602001848152602001838152602001828103825285818151815260200191508051906020019080838360005b8381101561187b578082015181840152602081019050611860565b50505050905090810190601f1680156118a85780820380516001836020036101000a031916815260200191505b509550505050505060405180910390a243600260008973ffffffffffffffffffffffffffffffffffffffff1673ffffffffffffffffffffffffffffffffffffffff1681526020019081526020016000208190555050505050505050565b828261191082610f25565b73ffffffffffffffffffffffffffffffffffffffff168173ffffffffffffffffffffffffffffffffffffffff161461194757600080fd5b826000808773ffffffffffffffffffffffffffffffffffffffff1673ffffffffffffffffffffffffffffffffffffffff16815260200190815260200160002060006101000a81548173ffffffffffffffffffffffffffffffffffffffff021916908373ffffffffffffffffffffffffffffffffffffffff1602179055508473ffffffffffffffffffffffffffffffffffffffff167f38a5a6e68f30ed1ab45860a4afb34bcb2fc00f22ca462d249b8a8d40cda6f7a384600260008973ffffffffffffffffffffffffffffffffffffffff1673ffffffffffffffffffffffffffffffffffffffff16815260200190815260200160002054604051808373ffffffffffffffffffffffffffffffffffffffff1681526020018281526020019250505060405180910390a243600260008773ffffffffffffffffffffffffffffffffffffffff1673ffffffffffffffffffffffffffffffffffffffff168152602001908152602001600020819055505050505050565b8383611ac582610f25565b73ffffffffffffffffffffffffffffffffffffffff168173ffffffffffffffffffffffffffffffffffffffff1614611afc57600080fd5b42600160008873ffffffffffffffffffffffffffffffffffffffff1673ffffffffffffffffffffffffffffffffffffffff1681526020019081526020016000206000866040516020018082815260200191505060405160208183030381529060405280519060200120815260200190815260200160002060008573ffffffffffffffffffffffffffffffffffffffff1673ffffffffffffffffffffffffffffffffffffffff168152602001908152602001600020819055508573ffffffffffffffffffffffffffffffffffffffff167f5a5084339536bcab65f20799fcc58724588145ca054bd2be626174b27ba156f7858542600260008c73ffffffffffffffffffffffffffffffffffffffff1673ffffffffffffffffffffffffffffffffffffffff16815260200190815260200160002054604051808581526020018473ffffffffffffffffffffffffffffffffffffffff16815260200183815260200182815260200194505050505060405180910390a243600260008873ffffffffffffffffffffffffffffffffffffffff1673ffffffffffffffffffffffffffffffffffffffff16815260200190815260200160002081905550505050505050565b8484611cc682610f25565b73ffffffffffffffffffffffffffffffffffffffff168173ffffffffffffffffffffffffffffffffffffffff1614611cfd57600080fd5b824201600160008973ffffffffffffffffffffffffffffffffffffffff1673ffffffffffffffffffffffffffffffffffffffff1681526020019081526020016000206000876040516020018082815260200191505060405160208183030381529060405280519060200120815260200190815260200160002060008673ffffffffffffffffffffffffffffffffffffffff1673ffffffffffffffffffffffffffffffffffffffff168152602001908152602001600020819055508673ffffffffffffffffffffffffffffffffffffffff167f5a5084339536bcab65f20799fcc58724588145ca054bd2be626174b27ba156f78686864201600260008d73ffffffffffffffffffffffffffffffffffffffff1673ffffffffffffffffffffffffffffffffffffffff16815260200190815260200160002054604051808581526020018473ffffffffffffffffffffffffffffffffffffffff16815260200183815260200182815260200194505050505060405180910390a243600260008973ffffffffffffffffffffffffffffffffffffffff1673ffffffffffffffffffffffffffffffffffffffff168152602001908152602001600020819055505050505050505056fea2646970667358221220fd39184eba6321da66b49034343a1c6e868e4d807a4e40c881122bb3d087132564736f6c63430007060033",
  "immutableReferences": {},
  "source": "pragma solidity ^0.7.0;\n\ncontract EthereumDIDRegistry {\n    mapping(address => address) public owners;\n    mapping(address => mapping(bytes32 => mapping(address => uint256)))\n        public delegates;\n    mapping(address => uint256) public changed;\n    mapping(address => uint256) public nonce;\n\n    modifier onlyOwner(address identity, address actor) {\n        require(actor == identityOwner(identity));\n        _;\n    }\n\n    event DIDOwnerChanged(\n        address indexed identity,\n        address owner,\n        uint256 previousChange\n    );\n\n    event DIDDelegateChanged(\n        address indexed identity,\n        bytes32 delegateType,\n        address delegate,\n        uint256 validTo,\n        uint256 previousChange\n    );\n\n    event DIDAttributeChanged(\n        address indexed identity,\n        bytes32 name,\n        bytes value,\n        uint256 validTo,\n        uint256 previousChange\n    );\n\n    function identityOwner(address identity) public view returns (address) {\n        address owner = owners[identity];\n        if (owner != address(0)) {\n            return owner;\n        }\n        return identity;\n    }\n\n    function checkSignature(\n        address identity,\n        uint8 sigV,\n        bytes32 sigR,\n        bytes32 sigS,\n        bytes32 hash\n    ) internal returns (address) {\n        address signer = ecrecover(hash, sigV, sigR, sigS);\n        require(signer == identityOwner(identity));\n        nonce[signer]++;\n        return signer;\n    }\n\n    function validDelegate(\n        address identity,\n        bytes32 delegateType,\n        address delegate\n    ) public view returns (bool) {\n        uint256 validity =\n            delegates[identity][keccak256(abi.encodePacked(delegateType))][delegate];\n        return (validity > block.timestamp);\n    }\n\n    function changeOwner(\n        address identity,\n        address actor,\n        address newOwner\n    ) internal onlyOwner(identity, actor) {\n        owners[identity] = newOwner;\n        emit DIDOwnerChanged(identity, newOwner, changed[identity]);\n        changed[identity] = block.number;\n    }\n\n    function changeOwner(address identity, address newOwner) public {\n        changeOwner(identity, msg.sender, newOwner);\n    }\n\n    function changeOwnerSigned(\n        address identity,\n        uint8 sigV,\n        bytes32 sigR,\n        bytes32 sigS,\n        address newOwner\n    ) public {\n        bytes32 hash =\n            keccak256(\n                abi.encodePacked(\n                    bytes1(0x19),\n                    bytes1(0),\n                    this,\n                    nonce[identityOwner(identity)],\n                    identity,\n                    \"changeOwner\",\n                    newOwner\n                )\n            );\n        changeOwner(\n            identity,\n            checkSignature(identity, sigV, sigR, sigS, hash),\n            newOwner\n        );\n    }\n\n    function addDelegate(\n        address identity,\n        address actor,\n        bytes32 delegateType,\n        address delegate,\n        uint256 validity\n    ) internal onlyOwner(identity, actor) {\n        delegates[identity][keccak256(abi.encodePacked(delegateType))][\n            delegate\n        ] = block.timestamp + validity;\n        emit DIDDelegateChanged(\n            identity,\n            delegateType,\n            delegate,\n            block.timestamp + validity,\n            changed[identity]\n        );\n        changed[identity] = block.number;\n    }\n\n    function addDelegate(\n        address identity,\n        bytes32 delegateType,\n        address delegate,\n        uint256 validity\n    ) public {\n        addDelegate(identity, msg.sender, delegateType, delegate, validity);\n    }\n\n    function addDelegateSigned(\n        address identity,\n        uint8 sigV,\n        bytes32 sigR,\n        bytes32 sigS,\n        bytes32 delegateType,\n        address delegate,\n        uint256 validity\n    ) public {\n        bytes32 hash =\n            keccak256(\n                abi.encodePacked(\n                    bytes1(0x19),\n                    bytes1(0),\n                    this,\n                    nonce[identityOwner(identity)],\n                    identity,\n                    \"addDelegate\",\n                    delegateType,\n                    delegate,\n                    validity\n                )\n            );\n        addDelegate(\n            identity,\n            checkSignature(identity, sigV, sigR, sigS, hash),\n            delegateType,\n            delegate,\n            validity\n        );\n    }\n\n    function revokeDelegate(\n        address identity,\n        address actor,\n        bytes32 delegateType,\n        address delegate\n    ) internal onlyOwner(identity, actor) {\n        delegates[identity][keccak256(abi.encodePacked(delegateType))][\n            delegate\n        ] = block.timestamp;\n        emit DIDDelegateChanged(\n            identity,\n            delegateType,\n            delegate,\n            block.timestamp,\n            changed[identity]\n        );\n        changed[identity] = block.number;\n    }\n\n    function revokeDelegate(\n        address identity,\n        bytes32 delegateType,\n        address delegate\n    ) public {\n        revokeDelegate(identity, msg.sender, delegateType, delegate);\n    }\n\n    function revokeDelegateSigned(\n        address identity,\n        uint8 sigV,\n        bytes32 sigR,\n        bytes32 sigS,\n        bytes32 delegateType,\n        address delegate\n    ) public {\n        bytes32 hash =\n            keccak256(\n                abi.encodePacked(\n                    bytes1(0x19),\n                    bytes1(0),\n                    this,\n                    nonce[identityOwner(identity)],\n                    identity,\n                    \"revokeDelegate\",\n                    delegateType,\n                    delegate\n                )\n            );\n        revokeDelegate(\n            identity,\n            checkSignature(identity, sigV, sigR, sigS, hash),\n            delegateType,\n            delegate\n        );\n    }\n\n    function setAttribute(\n        address identity,\n        address actor,\n        bytes32 name,\n        bytes memory value,\n        uint256 validity\n    ) internal onlyOwner(identity, actor) {\n        emit DIDAttributeChanged(\n            identity,\n            name,\n            value,\n            block.timestamp + validity,\n            changed[identity]\n        );\n        changed[identity] = block.number;\n    }\n\n    function setAttribute(\n        address identity,\n        bytes32 name,\n        bytes memory value,\n        uint256 validity\n    ) public {\n        setAttribute(identity, msg.sender, name, value, validity);\n    }\n\n    function setAttributeSigned(\n        address identity,\n        uint8 sigV,\n        bytes32 sigR,\n        bytes32 sigS,\n        bytes32 name,\n        bytes memory value,\n        uint256 validity\n    ) public {\n        bytes32 hash =\n            keccak256(\n                abi.encodePacked(\n                    bytes1(0x19),\n                    bytes1(0),\n                    this,\n                    nonce[identityOwner(identity)],\n                    identity,\n                    \"setAttribute\",\n                    name,\n                    value,\n                    validity\n                )\n            );\n        setAttribute(\n            identity,\n            checkSignature(identity, sigV, sigR, sigS, hash),\n            name,\n            value,\n            validity\n        );\n    }\n\n    function revokeAttribute(\n        address identity,\n        address actor,\n        bytes32 name,\n        bytes memory value\n    ) internal onlyOwner(identity, actor) {\n        emit DIDAttributeChanged(identity, name, value, 0, changed[identity]);\n        changed[identity] = block.number;\n    }\n\n    function revokeAttribute(\n        address identity,\n        bytes32 name,\n        bytes memory value\n    ) public {\n        revokeAttribute(identity, msg.sender, name, value);\n    }\n\n    function revokeAttributeSigned(\n        address identity,\n        uint8 sigV,\n        bytes32 sigR,\n        bytes32 sigS,\n        bytes32 name,\n        bytes memory value\n    ) public {\n        bytes32 hash =\n            keccak256(\n                abi.encodePacked(\n                    bytes1(0x19),\n                    bytes1(0),\n                    this,\n                    nonce[identityOwner(identity)],\n                    identity,\n                    \"revokeAttribute\",\n                    name,\n                    value\n                )\n            );\n        revokeAttribute(\n            identity,\n            checkSignature(identity, sigV, sigR, sigS, hash),\n            name,\n            value\n        );\n    }\n}\n",
  "sourcePath": "/home/rogelio/Code/xdv/ethr-did-registry/contracts/EthereumDIDRegistry.sol",
  "compiler": {
    "name": "solc",
    "version": "0.7.6+commit.7338295f.Emscripten.clang"
  },
  "schemaVersion": "3.3.3",
  "updatedAt": "2021-02-17T23:53:32.191Z",
  "devdoc": {
    "kind": "dev",
    "methods": {},
    "version": 1
  },
  "userdoc": {
    "kind": "user",
    "methods": {},
    "version": 1
  }
}